:200000000080079DF0730109F495F495F0730109F495F495F0730109F495F495F0730109D2
:20002000F495F495F0730109F495F495F0730109F495F495F0730109F495F495F0730109C4
:20004000F495F495F0730109F495F495F0730109F495F495F0730109F495F495F0730109A4
:20006000F495F495F0730109F495F495F0730109F495F495F0730109F495F495F073010984
:20008000F495F495F0730109F495F495F0730109F495F495F0730109F495F495F073010964
:2000A000F495F495F0730109F495F495F0730109F495F495F0730109F495F495F073010944
:2000C000F495F495F0730109F495F495F0730109F495F495F0730109F495F495F073010924
:2000E000F495F495F0730109F495F495F0730109F495F495F0730109F495F495F073010904
:20010000F495F495F6BDF7BB771827F0771D00A0F6B8F495F495F7BB771000007510000010
:20012000751080007510A0007710000077110000771200007713000077140000771500005C
:200140007716000077170000770100FF77260010F02007F1F074040CF020049CF074040CC0
:2001600077100000751080007722000877000020F6BB7723048077380800773904087715ED
:200180000800771107FF779500006C89014177150800771104411091881060100000F83054
:2001A0000154F040010098B1F073014977160800772200487410A000F495F495771000820E
:2001C00075108000F02007F6F074040C771700014828F120FFFFF35C0007F280F04C000087
:2001E0008828F7BDEC64F495F6BD77111800771200FF74108000F495F49561100040F82008
:200200000182749100006D8A6C8201774828F04C00078828F495F495F020080061160800ED
:20022000F8200192F00002048811E8C880918091771218007713007FF7BDEC32F495F6BDFA
:2002400077130007F02100FFF04002008091F0210055F04002008091F02100FFF0400200CF
:200260008091F0210000F040020080916C8B01A0F02003FE80918091F7BDEC32F495F6BD40
:20028000EC64F495F7BDEC32F495F6BD7710000275108000771000007510A000F02007F135
:2002A000F074040CF495F495F7BB770100FFF5E14823881677010020F0730158F6EB750006
:2002C000A0004A114A164A174A064A07F4BAF4B9EEFEF495800076015A8269F80007455E13
:2002E000ECC8F495F7BDEC64F495F6BDEC32F495F7BDEC64F495F6BDEC32F495F7BDEC64EF
:20030000F495F6BDECC8F4957100001271000013E734E7356DEB00026DEC00046DED00060F
:20032000F7BDEC64F495F6BDECC8F4951008FA450240ED00F495ED1E771000077719000008
:20034000771A00FFF072023DA301A0018783A123F6008692F621A323C81A8795A327F68030
:200360008293F63F45858295A0238684A201F60286B5F623A101C82DF50287B2F52387B47C
:20038000F073027C771000077719000077110100F495F495F7BDEC64F495F6BDEC19F495F5
:2003A000F495F495A301A0018783A123F6008692F621A323C81A8795A327F6808293F621C3
:2003C00045858295A0238684A201F60086856DED0007F495F495F7BDEC19F495F6BDEC6413
:2003E000F4956D89F4956C810246F073027CF621A101C82DF50087B2F52187B41000881208
:20040000F0000008881310087711000977140002FD44ED1F771A007FF27202AC3001F495EA
:2004200044824183C391CA18C501C309CE98E740288B3D82C780CE912C833D82C70DCA5861
:200440003D82C780CA913D82C709CE98E7102C8B3D82C709D21828833D82C70D87DA7710F9
:20046000FFFEECC8F495F7BDEC64F495F6BDEC32F495F7BDEC64F495F6BDECC8F4951000CE
:200480008812F000001088137711003F771608227717081EE764E775771A0005448241832E
:2004A000C391CA183D82C7808793A429B0B53D82C780CE91B8A1F27202E4C509C380A49265
:2004C000B0BDC309C780CE91B81AC509C3806D8B87936DEA00106E8902C86DEB00101000A8
:2004E0008812F000002088137711001F7716083177170829E764E775771A000D44824183BC
:20050000C391CA183D82C7808793A429B0B53D82C780CE91B8A1F2720314C509C380A492D3
:20052000B0BDC309C780CE91B81AC509C3806D8B87936DEA00206E8902F86DEB00201000F7
:200540008812F000004088137711000F7716085077170840E764E775771A001D4482418305
:20056000C391CA183D82C7808793A429B0B53D82C780CE91B8A1F2720344C509C380A49243
:20058000B0BDC309C780CE91B81AC509C3806D8B87936DEA00406E8903286DEB0040100026
:2005A0008812F00000808813771100077716088F7717086FE764E775771A003D44824183DF
:2005C000C391CA183D82C7808793A429B0B53D82C780CE91B8A1F2720374C509C380A492B3
:2005E000B0BDC309C780CE91B81AC509C3806D8B87936DEA00806E8903586DEB0080100016
:200600008812F00001008813771100037716090E771708CEE764E775771A007D44824183E2
:20062000C391CA183D82C7808793A429B0B53D82C780CE91B8A1F27203A4C509C380A49222
:20064000B0BDC309C780CE91B81AC509C3806D8B87936DEA01006E8903886DEB0100100083
:200660008812F000020088137711000177160A0D7717098DE764E775771A00FD4482418343
:20068000C391CA183D82C7808793A429B0B53D82C780CE91B8A1F27203D4C509C380A49292
:2006A000B0BDC309C780CE91B81AC509C3806D8B87936DEA02006E8903B86DEB02001000F1
:2006C0008812F0000400881377140C0C77150B0C771A01FD44824183C391CA183D82C78056
:2006E0008793A429B0B53D82C780CE91B8A1F2720400C509C380A492B0BDC309C780CE9162
:20070000B81AC509C3806D8B8793EE028A078A068A178A168A11FE00F495F4958812F495C4
:20072000F4956082FFFFF83004401092F540F0F8F0300003881375134007F640F03000FF43
:200740008813751340061092F540F0F8881375134004F640F03000FF8813751340031092AD
:20076000F540F0F8881375134002F640F03000FF8813751340011092F0F888137513400051
:20078000F073040FFC00446172746D6F75746820436F6C6C6567652052782D4453502C200A
:2007A00041474F20556E697420542C2074657374207633000000446172746D6F7574682081
:2007C000436F6C6C656765204D617374657220527844535020200000446172746D6F757471
:2007E0006820436F6C6C65676520536C6176652020527844535020200000DA27FFFFAAAA17
:200800001B3300000D0A414436363230207365742D75703A204D4153544552200D0A000045
:200820000D0A414436363230207365742D757020636F6D706C6574650D0A0000030100003C
:2008400000000000030200FFFFFFFF0003030001FA44200003040000000000000305000023
:20086000000005000306000000000900030700000000070003080000000004000309000035
:2008800000000400030A000000000300030B000000000000030C00000000C700030D000050
:2008A00000000000000000000005D3000001FFFFFFFE3C000002FFFFFFFF99000003FFFF90
:2008C000FFF58F000004FFFFFFEFD5000005FFFFFFE69B000006FFFFFFE3FA000007FFFF68
:2008E000FFE4C3000008FFFFFFED4C000009FFFFFFF88600000A000000050900000B00006D
:20090000000CB000000C0000000E3B00000D000000083B00000EFFFFFFFEC000000FFFFFA0
:20092000FFF58A000010FFFFFFF1E2000011FFFFFFF518000012FFFFFFFE490000130000D5
:200940000008810000140000000EF70000150000000DB30000160000000553000017FFFF9D
:20096000FFF979000018FFFFFFF075000019FFFFFFEEF300001AFFFFFFF67D00001B0000F0
:2009800000037F00001C0000000FA800001D000000144F00001E0000000E9500001F0000A2
:2009A00000009C000020FFFFFFF163000021FFFFFFE8BD000022FFFFFFEBE2000023FFFF5A
:2009C000FFF9E70000240000000C4100002500000019650000260000001A050000270000B8
:2009E000000CD1000028FFFFFFF7DA000029FFFFFFE5A500002AFFFFFFE03100002BFFFF13
:200A0000FFEB3A00002C000000022E00002D00000019A200002E000000252700002F0000C5
:200A2000001DB100003000000005DF000031FFFFFFE924000032FFFFFFD684000033FFFFDF
:200A4000FFD8A6000034FFFFFFEFF900003500000011910000360000002C4A000037000046
:200A60000031500000380000001C61000039FFFFFFF6AA00003AFFFFFFD31A00003BFFFF0D
:200A8000FFC4DB00003CFFFFFFD52F00003DFFFFFFFDB900003E0000002AA700003F00003D
:200AA0000044420000400000003B4A00004100000011BE000042FFFFFFDB48000043FFFF38
:200AC000FFB403000044FFFFFFB258000045FFFFFFDA520000460000001A1E0000470000E2
:200AE00000518200004800000061F30000490000003EFB00004AFFFFFFF69A00004BFFFFE5
:200B0000FFAC3B00004CFFFFFF87CD00004DFFFFFFA0E000004EFFFFFFF06C00004F000092
:200B20000051500000500000009100000051000000890300005200000034D3000053FFFFAC
:200B4000FFB870000054FFFFFF5235000055FFFFFF3D25000056FFFFFF9123000057000084
:200B600000312B000058000000D28F0000590000011CAC00005A000000D4AD00005B000008
:200B800000015100005CFFFFFEF49300005DFFFFFE331500005EFFFFFE40D400005FFFFFB8
:200BA000FF66CA0000600000018B3F0000610000042F02000062000006941D0000630000C9
:200BC00007FFFF000064000007FFFF000065000006941D0000660000042F02000067000089
:200BE000018B3F000068FFFFFF66CA000069FFFFFE40D400006AFFFFFE331500006BFFFF05
:200C0000FEF49300006C000000015100006D000000D4AD00006E0000011CAC00006F0000FD
:200C200000D28F000070000000312B000071FFFFFF9123000072FFFFFF3D25000073FFFF23
:200C4000FF5235000074FFFFFFB87000007500000034D30000760000008903000077000080
:200C60000091000000780000005150000079FFFFFFF06C00007AFFFFFFA0E000007BFFFF88
:200C8000FF87CD00007CFFFFFFAC3B00007DFFFFFFF69A00007E0000003EFB00007F000061
:200CA0000061F300008000000051820000810000001A1E000082FFFFFFDA52000083FFFFA8
:200CC000FFB258000084FFFFFFB403000085FFFFFFDB4800008600000011BE000087000052
:200CE000003B4A00008800000044420000890000002AA700008AFFFFFFFDB900008BFFFF41
:200D0000FFD52F00008CFFFFFFC4DB00008DFFFFFFD31A00008EFFFFFFF6AA00008F000077
:200D2000001C6100009000000031500000910000002C4A0000920000001191000093FFFF59
:200D4000FFEFF9000094FFFFFFD8A6000095FFFFFFD684000096FFFFFFE92400009700007A
:200D60000005DF0000980000001DB1000099000000252700009A00000019A200009B000054
:200D800000022E00009CFFFFFFEB3A00009DFFFFFFE03100009EFFFFFFE5A500009FFFFFF8
:200DA000FFF7DA0000A00000000CD10000A10000001A050000A200000019650000A3000063
:200DC000000C410000A4FFFFFFF9E70000A5FFFFFFEBE20000A6FFFFFFE8BD0000A7FFFFE9
:200DE000FFF1630000A8000000009C0000A90000000E950000AA000000144F0000AB000058
:200E0000000FA80000AC000000037F0000ADFFFFFFF67D0000AEFFFFFFEEF30000AFFFFF97
:200E2000FFF0750000B0FFFFFFF9790000B100000005530000B20000000DB30000B3000001
:200E4000000EF70000B400000008810000B5FFFFFFFE490000B6FFFFFFF5180000B7FFFFE2
:200E6000FFF1E20000B8FFFFFFF58A0000B9FFFFFFFEC00000BA000000083B0000BB000040
:200E8000000E3B0000BC0000000CB00000BD00000005090000BEFFFFFFF8860000BFFFFFD0
:200EA000FFED4C0000C0FFFFFFE4C30000C1FFFFFFE3FA0000C2FFFFFFE69B0000C3FFFFFA
:200EC000FFEFD50000C4FFFFFFF58F0000C5FFFFFFFF990000C6FFFFFFFE3C0000C70000EC
:200EE0000005D300FFFF0300000000000100FFFF0300000000000800FFFF0300000000000E
:200F00000000FFFF03030003D70A7E00FFFF0303000A8F5CDA00FFFF03030000F5C29F003E
:200F2000FFFF0303000A40B82C00FFFF030300059168D000FFFF03030001FA442000FFFF4C
:020F40000000AF
:00000001FF
